{
  "contractName": "NewGame",
  "abi": [
    {
      "constant": true,
      "inputs": [],
      "name": "playSize",
      "outputs": [
        {
          "name": "",
          "type": "uint256"
        }
      ],
      "payable": false,
      "stateMutability": "view",
      "type": "function",
      "signature": "0x3955b672"
    },
    {
      "constant": true,
      "inputs": [
        {
          "name": "",
          "type": "uint256"
        }
      ],
      "name": "players",
      "outputs": [
        {
          "name": "player",
          "type": "address"
        },
        {
          "name": "guessNum",
          "type": "uint256"
        },
        {
          "name": "bet",
          "type": "uint256"
        }
      ],
      "payable": false,
      "stateMutability": "view",
      "type": "function",
      "signature": "0xf71d96cb"
    },
    {
      "inputs": [],
      "payable": false,
      "stateMutability": "nonpayable",
      "type": "constructor",
      "signature": "constructor"
    },
    {
      "anonymous": false,
      "inputs": [
        {
          "indexed": false,
          "name": "bet",
          "type": "uint256"
        },
        {
          "indexed": false,
          "name": "count",
          "type": "uint256"
        },
        {
          "indexed": false,
          "name": "addr",
          "type": "address"
        }
      ],
      "name": "player_count_event",
      "type": "event",
      "signature": "0x8fbfb0ab3e26c35a02efeb8ce88a93ccf75f3fb8d236d7fb5825c53fe40318cd"
    },
    {
      "anonymous": false,
      "inputs": [
        {
          "indexed": false,
          "name": "adr",
          "type": "address[3]"
        },
        {
          "indexed": false,
          "name": "winamount",
          "type": "uint256[3]"
        }
      ],
      "name": "totalwinamoubt",
      "type": "event",
      "signature": "0x91fd443c7cb4ac4901a7a78b112238fdec1502dd350bdc9cbb503cd4ed2d7948"
    },
    {
      "anonymous": false,
      "inputs": [
        {
          "indexed": false,
          "name": "adr",
          "type": "address[3]"
        },
        {
          "indexed": false,
          "name": "guessnums",
          "type": "uint256[3]"
        },
        {
          "indexed": false,
          "name": "winPercent",
          "type": "uint256[3]"
        },
        {
          "indexed": false,
          "name": "count",
          "type": "uint256"
        },
        {
          "indexed": false,
          "name": "bet",
          "type": "uint256"
        }
      ],
      "name": "playerdetails_event",
      "type": "event",
      "signature": "0x1948bf3c2ee330cfda3398885b0f8d6b44f9a506b144cb736b517c7adbeaac92"
    },
    {
      "constant": false,
      "inputs": [
        {
          "name": "adr",
          "type": "address"
        },
        {
          "name": "guessnum",
          "type": "uint256"
        },
        {
          "name": "bet",
          "type": "uint256"
        }
      ],
      "name": "joinGame",
      "outputs": [],
      "payable": true,
      "stateMutability": "payable",
      "type": "function",
      "signature": "0x7ace30cc"
    },
    {
      "constant": true,
      "inputs": [
        {
          "name": "bet",
          "type": "uint256"
        }
      ],
      "name": "getPlayerAddress",
      "outputs": [
        {
          "name": "",
          "type": "address[3]"
        },
        {
          "name": "",
          "type": "uint256"
        }
      ],
      "payable": false,
      "stateMutability": "view",
      "type": "function",
      "signature": "0x65225665"
    },
    {
      "constant": true,
      "inputs": [
        {
          "name": "bet_val",
          "type": "uint256"
        }
      ],
      "name": "checkPoolcheck",
      "outputs": [
        {
          "name": "",
          "type": "bool"
        }
      ],
      "payable": false,
      "stateMutability": "view",
      "type": "function",
      "signature": "0x6b7226d5"
    },
    {
      "constant": true,
      "inputs": [
        {
          "name": "adr",
          "type": "address"
        },
        {
          "name": "bet",
          "type": "uint256"
        }
      ],
      "name": "checkDuplicate",
      "outputs": [
        {
          "name": "",
          "type": "bool"
        }
      ],
      "payable": false,
      "stateMutability": "view",
      "type": "function",
      "signature": "0x4c11763d"
    },
    {
      "constant": true,
      "inputs": [],
      "name": "getContractBal",
      "outputs": [
        {
          "name": "",
          "type": "uint256"
        }
      ],
      "payable": false,
      "stateMutability": "view",
      "type": "function",
      "signature": "0x5d9fa6fc"
    },
    {
      "constant": false,
      "inputs": [
        {
          "name": "bet",
          "type": "uint256"
        }
      ],
      "name": "distributeReward",
      "outputs": [],
      "payable": false,
      "stateMutability": "nonpayable",
      "type": "function",
      "signature": "0x940a4e45"
    },
    {
      "constant": false,
      "inputs": [
        {
          "name": "bet",
          "type": "uint256"
        }
      ],
      "name": "magicmagic",
      "outputs": [
        {
          "name": "",
          "type": "uint256[3]"
        }
      ],
      "payable": false,
      "stateMutability": "nonpayable",
      "type": "function",
      "signature": "0x021a2acf"
    },
    {
      "constant": false,
      "inputs": [
        {
          "name": "total_rewards",
          "type": "uint256"
        },
        {
          "name": "winpercentage",
          "type": "uint256[3]"
        },
        {
          "name": "bet",
          "type": "uint256"
        }
      ],
      "name": "priceDistribution",
      "outputs": [
        {
          "name": "",
          "type": "uint256[3]"
        }
      ],
      "payable": false,
      "stateMutability": "nonpayable",
      "type": "function",
      "signature": "0x93d836d1"
    },
    {
      "constant": false,
      "inputs": [
        {
          "name": "winDeviation",
          "type": "uint256[3]"
        },
        {
          "name": "guessAvg",
          "type": "uint256"
        },
        {
          "name": "bet",
          "type": "uint256"
        }
      ],
      "name": "winpercentage",
      "outputs": [
        {
          "name": "",
          "type": "uint256[3]"
        }
      ],
      "payable": false,
      "stateMutability": "nonpayable",
      "type": "function",
      "signature": "0x47b1cf65"
    },
    {
      "constant": true,
      "inputs": [
        {
          "name": "avg",
          "type": "uint256"
        },
        {
          "name": "deviateAvg",
          "type": "uint256"
        },
        {
          "name": "deviateValue",
          "type": "uint256[3]"
        }
      ],
      "name": "deviatedValues",
      "outputs": [
        {
          "name": "",
          "type": "uint256[3]"
        }
      ],
      "payable": false,
      "stateMutability": "view",
      "type": "function",
      "signature": "0x1227e7c0"
    },
    {
      "constant": true,
      "inputs": [
        {
          "name": "deviate",
          "type": "uint256[3]"
        }
      ],
      "name": "sumDeviate",
      "outputs": [
        {
          "name": "",
          "type": "uint256"
        }
      ],
      "payable": false,
      "stateMutability": "view",
      "type": "function",
      "signature": "0x530a53e8"
    },
    {
      "constant": true,
      "inputs": [
        {
          "name": "guessAvg",
          "type": "uint256"
        },
        {
          "name": "bet",
          "type": "uint256"
        }
      ],
      "name": "calcDeviate",
      "outputs": [
        {
          "name": "",
          "type": "uint256[3]"
        }
      ],
      "payable": false,
      "stateMutability": "view",
      "type": "function",
      "signature": "0x2a020b91"
    },
    {
      "constant": true,
      "inputs": [
        {
          "name": "bet",
          "type": "uint256"
        }
      ],
      "name": "calcTotalether",
      "outputs": [
        {
          "name": "",
          "type": "uint256"
        }
      ],
      "payable": false,
      "stateMutability": "view",
      "type": "function",
      "signature": "0x540570d2"
    },
    {
      "constant": true,
      "inputs": [
        {
          "name": "bet",
          "type": "uint256"
        }
      ],
      "name": "calculateSum",
      "outputs": [
        {
          "name": "",
          "type": "uint256"
        }
      ],
      "payable": false,
      "stateMutability": "view",
      "type": "function",
      "signature": "0x5f8932ff"
    }
  ],
  "bytecode": "0x608060405234801561001057600080fd5b50600060018190558054600160a060020a03191633179055611118806100376000396000f3fe6080604052600436106100e55763ffffffff7c0100000000000000000000000000000000000000000000000000000000600035041663021a2acf81146100ea5780631227e7c01461014c5780632a020b91146101b35780633955b672146101e357806347b1cf651461020a5780634c11763d1461026e578063530a53e8146102bb578063540570d21461031a5780635d9fa6fc146103445780635f8932ff1461035957806365225665146103835780636b7226d5146103ec5780637ace30cc1461041657806393d836d11461044a578063940a4e45146104af578063f71d96cb146104d9575b600080fd5b3480156100f657600080fd5b506101146004803603602081101561010d57600080fd5b503561052b565b6040518082606080838360005b83811015610139578181015183820152602001610121565b5050505090500191505060405180910390f35b34801561015857600080fd5b50610114600480360360a081101561016f57600080fd5b6040805160608181018352843594602081013594810193909260a0840192909184019060039083908390808284376000920191909152509194506106019350505050565b3480156101bf57600080fd5b50610114600480360360408110156101d657600080fd5b5080359060200135610654565b3480156101ef57600080fd5b506101f86107bf565b60408051918252519081900360200190f35b34801561021657600080fd5b50610114600480360360a081101561022d57600080fd5b8101908080606001906003806020026040519081016040528092919082600360200280828437600092019190915250919450508135925050602001356107c4565b34801561027a57600080fd5b506102a76004803603604081101561029157600080fd5b50600160a060020a0381351690602001356109a3565b604080519115158252519081900360200190f35b3480156102c757600080fd5b506101f8600480360360608110156102de57600080fd5b8101908080606001906003806020026040519081016040528092919082600360200280828437600092019190915250919450610a159350505050565b34801561032657600080fd5b506101f86004803603602081101561033d57600080fd5b5035610a41565b34801561035057600080fd5b506101f8610aae565b34801561036557600080fd5b506101f86004803603602081101561037c57600080fd5b5035610ab4565b34801561038f57600080fd5b506103ad600480360360208110156103a657600080fd5b5035610b20565b6040518083606080838360005b838110156103d25781810151838201526020016103ba565b505050509050018281526020019250505060405180910390f35b3480156103f857600080fd5b506102a76004803603602081101561040f57600080fd5b5035610bcd565b6104486004803603606081101561042c57600080fd5b50600160a060020a038135169060208101359060400135610c0b565b005b34801561045657600080fd5b50610114600480360360a081101561046d57600080fd5b6040805160608181019092528335939283019291608083019190602084019060039083908390808284376000920191909152509194505090359150610d339050565b3480156104bb57600080fd5b50610448600480360360208110156104d257600080fd5b5035610da4565b3480156104e557600080fd5b50610503600480360360208110156104fc57600080fd5b5035611008565b60408051600160a060020a039094168452602084019290925282820152519081900360600190f35b610533611043565b600061053e83610a41565b90506064600a820204808203600061055586610ab4565b600087815260036020526040812054919250906064830281151561057557fe5b049050610580611043565b61058a8289610654565b600089815260036020526040812054919250906105a683610a15565b8115156105af57fe5b0490506105ba611043565b6105c5848385610601565b90506105cf611043565b6105da82868d6107c4565b90506105e4611043565b6105ef88838e610d33565b9a50505050505050505050505b919050565b610609611043565b610611611043565b60005b600381101561064b5783816003811061062957fe5b60200201518686010382826003811061063e57fe5b6020020152600101610614565b50949350505050565b61065c611043565b610664611043565b60008381526003602081905260409091205414156107b65760005b6000848152600360205260409020548110156107b45760008481526003602052604090208054869190839081106106b257fe5b906000526020600020906003020160010154606402111561071c5760008481526003602052604081208054879190849081106106ea57fe5b90600052602060002090600302016001015460640203905080838360038110151561071157fe5b6020020152506107ac565b600084815260036020526040902080548691908390811061073957fe5b906000526020600020906003020160010154606402101561079657600084815260036020526040812080548390811061076e57fe5b9060005260206000209060030201600101546064028603905080838360038110151561071157fe5b6000808383600381106107a557fe5b6020020152505b60010161067f565b505b90505b92915050565b600381565b6107cc611043565b6107d4611043565b6107dc611043565b6107e4611043565b600180548101905560005b60038110156108d0578688826003811061080557fe5b60200201516127100281151561081757fe5b0482826003811061082457fe5b602002018181525050600360008781526020019081526020016000208181548110151561084d57fe5b6000918252602090912060039182020154600160a060020a03169085908390811061087457fe5b600160a060020a039092166020928302919091015260008781526003909152604090208054829081106108a357fe5b90600052602060002090600302016001015483826003811015156108c357fe5b60200201526001016107ef565b507f1948bf3c2ee330cfda3398885b0f8d6b44f9a506b144cb736b517c7adbeaac92838383600154896040518086600360200280838360005b83811015610921578181015183820152602001610909565b5050505090500185600360200280838360005b8381101561094c578181015183820152602001610934565b5050505090500184600360200280838360005b8381101561097757818101518382015260200161095f565b505050509050018381526020018281526020019550505050505060405180910390a19695505050505050565b600080600083815260036020526040902054811015610a0e5760008381526003602052604090208054829081106109d657fe5b6000918252602090912060039091020154600160a060020a0385811691161415610a045760019150506107b9565b60009150506107b9565b5092915050565b600080805b6003811015610a0e57838160038110610a2f57fe5b60200201519190910190600101610a1a565b6000818152600360208190526040822054829114156107b95760005b600084815260036020526040902054811015610a0e576000848152600360205260409020805482908110610a8d57fe5b60009182526020909120600260039092020101549190910190600101610a5d565b30315b90565b6000818152600360208190526040822054829114156107b95760005b600084815260036020526040902054811015610a0e576000848152600360205260409020805482908110610b0057fe5b600091825260209091206001600390920201810154929092019101610ad0565b610b28611043565b6000610b32611043565b60008481526003602052604090205415610bc65760005b600085815260036020526040902054811015610bbb576000858152600360205260409020805482908110610b7957fe5b6000918252602090912060039182020154600160a060020a031690839083908110610ba057fe5b600160a060020a039092166020929092020152600101610b49565b509150829050610bc8565b505b915091565b60008160641480610bdf5750816101f4145b80610beb5750816103e8145b80610bf65750816032145b15610c03575060016105fc565b5060006105fc565b610c13611062565b5060408051606081018252600160a060020a038516815260208082018590528183018490526000848152600391829052929092205490911115610d21576000828152600360208181526040808420805460018082018355828752848720885192909602909501805473ffffffffffffffffffffffffffffffffffffffff1916600160a060020a039283161781558785015195810195909555868301516002909501949094559386905292548351868152918201529086168183015290517f8fbfb0ab3e26c35a02efeb8ce88a93ccf75f3fb8d236d7fb5825c53fe40318cd916060908290030190a16000828152600360208190526040909120541415610d1c57610d1c82610da4565b610d2d565b610d2d6002600061108d565b50505050565b610d3b611043565b610d43611043565b60005b600381101561064b57848160038110610d5b57fe5b6020020151600360008681526020019081526020016000208054905087606402811515610d8457fe5b04026064028282600381101515610d9757fe5b6020020152600101610d46565b600081815260036020819052604090912054141561100557610dc4611043565b610dcc611043565b610dd583610a41565b30311061100257610de4611043565b610ded8461052b565b905060005b6003811015610f03576000858152600360205260409020805482908110610e1557fe5b6000918252602090912060039182020154600160a060020a031690859083908110610e3c57fe5b600160a060020a039092166020929092020152818160038110610e5b57fe5b60200201516298968002838260038110610e7157fe5b6020020181815250506003600086815260200190815260200160002081815481101515610e9a57fe5b6000918252602090912060039182020154600160a060020a0316906108fc90849084908110610ec557fe5b602002015162989680029081150290604051600060405180830381858888f19350505050158015610efa573d6000803e3d6000fd5b50600101610df2565b507f91fd443c7cb4ac4901a7a78b112238fdec1502dd350bdc9cbb503cd4ed2d794883836040518083600360200280838360005b83811015610f4f578181015183820152602001610f37565b5050505090500182600360200280838360005b83811015610f7a578181015183820152602001610f62565b505050509050019250505060405180910390a16000610f9885610a41565b600080546040519293506064600a85020492600160a060020a039091169166038d7ea4c68000840280156108fc02929091818181858888f19350505050158015610fe6573d6000803e3d6000fd5b506000868152600360205260408120610ffe9161108d565b5050505b50505b50565b600280548290811061101657fe5b6000918252602090912060039091020180546001820154600290920154600160a060020a03909116925083565b6060604051908101604052806003906020820280388339509192915050565b6060604051908101604052806000600160a060020a0316815260200160008152602001600081525090565b50805460008255600302906000526020600020908101906110059190610ab191905b808211156110e857805473ffffffffffffffffffffffffffffffffffffffff1916815560006001820181905560028201556003016110af565b509056fea165627a7a72305820965cc62df42bb90a939a5c985205f928fdd0418b53f2f44055ed84811451dc2d0029",
  "source": "pragma solidity ^0.5.0;\r\n\r\ncontract NewGame {\r\n     address payable developer;\r\n    //Struct to hold player details\r\n    struct Player{\r\n        address payable player;\r\n        uint guessNum;\r\n        uint bet;\r\n    }\r\n    //table count for each round of play (optional)\r\n    uint tablecount;\r\n    //developer's address to receive commision\r\n\r\n    //event to track player count in front end\r\n    event player_count_event(uint bet,uint count,address addr);\r\n\r\n    event totalwinamoubt(address[playSize] adr,uint256[playSize] winamount);\r\n    //Player pool size as per requirement size = 10\r\n    uint constant public playSize=3;\r\n    //Event to track history of transactions with player details\r\n    event playerdetails_event(address[playSize] adr,uint[playSize] guessnums,uint[playSize] winPercent,uint count,uint bet);\r\n    //Player struct array to hold players details\r\n    Player[] public players;\r\n    //mapping with different bet size i,e 50,100,500,1000 each represent 0.05,0.1,0.5,1 eth.\r\n    mapping (uint => Player[]) pools;\r\n\r\n    constructor() public{\r\n      //Initialize table count to 0\r\n      tablecount = 0;\r\n      developer = msg.sender;\r\n    }\r\n\r\n    //Function called while player placing bet\r\n    function joinGame(address payable adr,uint guessnum, uint bet) public payable{\r\n        //initialize struct\r\n        Player memory p1 = Player(address(0),0,0);\r\n\r\n        p1.player = adr;\r\n        p1.guessNum = guessnum;\r\n        p1.bet = bet;\r\n        //Check for play size to enter the pool\r\n         if(pools[bet].length < playSize){\r\n            //push the player to mapped bet\r\n             pools[bet].push(p1);\r\n             //emitting the player count event\r\n            emit player_count_event(bet,pools[bet].length,adr);\r\n            //If player count reaches the pool size call the calculation\r\n             if(pools[bet].length == playSize){\r\n                distributeReward(bet);\r\n            }\r\n        }else{\r\n            delete players;\r\n        }\r\n    }\r\n\r\n    //get player address as array by sending bet value\r\n    function getPlayerAddress(uint bet) public view returns (address[playSize] memory,uint){\r\n        address[playSize] memory addrarray;\r\n        if(pools[bet].length != 0){\r\n            for(uint i=0;i<pools[bet].length;i++){\r\n                addrarray[i] = pools[bet][i].player;\r\n            }\r\n            return (addrarray,bet);\r\n        }\r\n    }\r\n    //pool check from frontend\r\n    function checkPoolcheck(uint bet_val) public view returns(bool){\r\n      if (bet_val == 100 || bet_val == 500 || bet_val == 1000 || bet_val == 50){\r\n        return true;\r\n      }else{\r\n        return false;\r\n      }\r\n    }\r\n    //Checking the duplicate address in the pool restricting user is already bet is placed\r\n    function checkDuplicate(address adr,uint bet) public view returns(bool){\r\n        for(uint i=0; i<pools[bet].length; i++){\r\n            if(adr == pools[bet][i].player){\r\n                return true;\r\n            }else{\r\n                return false;\r\n            }\r\n        }\r\n    }\r\n\r\n    //To get contract balance\r\n    function getContractBal() public view returns (uint256){\r\n        return address(this).balance;\r\n    }\r\n\r\n  //reward distribution function\r\n  function distributeReward(uint bet) public{ //function distributeReward(bet) public{\r\n    //Pool size must be filled and player count must be equal to playsize\r\n      if(pools[bet].length == playSize){\r\n\r\n          address[playSize] memory adr;\r\n        uint[playSize] memory winAmount;\r\n\r\n        //Contract balance must be greater than winning rewards\r\n           if(address(this).balance >= calcTotalether(bet)){\r\n             //To get win percentage of all the players of the pool\r\n              uint[playSize] memory rewards = magicmagic(bet);\r\n              for(uint i = 0;i<rewards.length; i++){\r\n                //Transfer based on the percentage and bet amount of the pool\r\n                 adr[i] = pools[bet][i].player;\r\n                 winAmount[i] = rewards[i]*10000000;\r\n                 pools[bet][i].player.transfer(rewards[i]*10000000);\r\n              }\r\n              emit totalwinamoubt(adr,winAmount);\r\n              uint total_ether = calcTotalether(bet); //\r\n            uint commision = (total_ether*10)/100;\r\n              //transfer to developer\r\n              developer.transfer(commision*1000000000000000);\r\n              //emit bet and bet length for live tracking in front end\r\n              //emit player_count_event(bet,pools[bet].length,);\r\n              delete pools[bet];\r\n\r\n          }\r\n      }\r\n  }\r\n\r\n    function magicmagic(uint bet) public returns(uint[playSize] memory) {\r\n        //Total ether\r\n        uint total_ether = calcTotalether(bet); //\r\n        //commision\r\n        uint commision = (total_ether*10)/100;\r\n        //Reward for players to split\r\n        uint total_rewards = total_ether - commision;\r\n        //Sum of guess numbers of the players in the pool\r\n        uint guessSum = calculateSum(bet);\r\n        //Guess average of the players in the pool i.e mean of the numbers\r\n        uint guessAvg =  guessSum*100/pools[bet].length;\r\n        //Deviation from mean of each player's guess number\r\n        uint[playSize] memory deviateValue = calcDeviate(guessAvg,bet);\r\n        //Deviation average calculation\r\n        uint deviateAvg = sumDeviate(deviateValue)/pools[bet].length;\r\n        //Windeviation of each player's guess number\r\n        uint[playSize] memory winDeviation = deviatedValues(guessAvg,deviateAvg,deviateValue);\r\n        //Percentage calculation of the win Deviation\r\n        uint[playSize] memory winpercentage = winpercentage(winDeviation,guessAvg,bet);\r\n        //Price distribution with total rewards\r\n        uint[playSize] memory priceDistribution = priceDistribution(total_rewards,winpercentage,bet);\r\n        return priceDistribution;\r\n    }\r\n\r\n    function priceDistribution(uint total_rewards,uint[playSize]memory winpercentage,uint bet) public returns(uint[playSize] memory){\r\n        uint[playSize] memory result;\r\n        for(uint i=0;i<winpercentage.length;i++){\r\n            result[i] = ((total_rewards*100/pools[bet].length) * winpercentage[i] *100);\r\n        }\r\n        return result;\r\n    }\r\n    function winpercentage(uint[playSize] memory winDeviation,uint guessAvg,uint bet) public returns (uint[playSize] memory){\r\n      address[playSize] memory adr;\r\n      uint[playSize] memory guessnums;\r\n        uint[playSize] memory result;\r\n\r\n        tablecount++;\r\n\r\n        for(uint i=0;i<winDeviation.length;i++){\r\n            result[i] = winDeviation[i]*100*100/guessAvg;\r\n            adr[i] = pools[bet][i].player;\r\n            guessnums[i] = pools[bet][i].guessNum;\r\n        }\r\n        //Player details event emiiting to capture in frontend\r\n        emit playerdetails_event(adr,guessnums,result,tablecount,bet);\r\n        return result;\r\n    }\r\n    function deviatedValues(uint avg,uint deviateAvg,uint[playSize] memory deviateValue) public view returns(uint[playSize] memory){\r\n        uint[playSize] memory result;\r\n        for(uint i=0;i<deviateValue.length;i++){\r\n            result[i] = avg + deviateAvg - deviateValue[i];\r\n        }\r\n        return result;\r\n    }\r\n\r\n    function sumDeviate(uint[playSize] memory deviate) public view returns(uint){\r\n        uint sum = 0;\r\n        for(uint i=0;i<deviate.length;i++){\r\n            sum = sum + deviate[i];\r\n        }\r\n        return sum;\r\n    }\r\n    function calcDeviate(uint guessAvg,uint bet) public view returns(uint[playSize] memory){\r\n        uint[playSize] memory result;\r\n        if(pools[bet].length == playSize){\r\n            for(uint i=0;i<pools[bet].length;i++){\r\n              //nearest mean deviation for each player's guess value\r\n                if(pools[bet][i].guessNum*100 > guessAvg){\r\n                    uint temp = pools[bet][i].guessNum*100-guessAvg;\r\n                    result[i] = temp;\r\n                }else if(pools[bet][i].guessNum*100 < guessAvg ){\r\n                    uint temp = guessAvg - pools[bet][i].guessNum*100;\r\n                    result[i] = temp;\r\n                }else{\r\n                    uint temp = 0;\r\n                    result[i] = temp;\r\n                }\r\n            }\r\n        }\r\n        return result;\r\n    }\r\n\r\n    function calcTotalether(uint bet) public view returns(uint){\r\n        uint sum = 0;\r\n        if(pools[bet].length == playSize){\r\n            for(uint i=0;i<pools[bet].length;i++){\r\n                sum = sum + pools[bet][i].bet;\r\n            }\r\n        }\r\n        return sum;\r\n    }\r\n\r\n    function calculateSum(uint bet) public view returns(uint){\r\n        uint sum = 0;\r\n        if(pools[bet].length == playSize){\r\n            for(uint i=0;i<pools[bet].length;i++){\r\n                sum = sum + pools[bet][i].guessNum;\r\n            }\r\n        }\r\n        return sum;\r\n    }\r\n}\r\n",
  "sourcePath": "C:/Users/Rotary Next Gen/Desktop/bcgame/BlockChain/contracts/NewGame.sol",
  "compiler": {
    "name": "solc",
    "version": "0.5.0+commit.1d4f565a.Emscripten.clang"
  },
  "schemaVersion": "3.0.2",
  "updatedAt": "2019-04-30T06:38:27.736Z",
  "devdoc": {
    "methods": {}
  },
  "userdoc": {
    "methods": {}
  }
}