{
  "contractName": "WithoutSol",
  "abi": [
    {
      "constant": true,
      "inputs": [],
      "name": "max_players",
      "outputs": [
        {
          "name": "",
          "type": "uint256"
        }
      ],
      "payable": false,
      "stateMutability": "view",
      "type": "function"
    },
    {
      "constant": true,
      "inputs": [
        {
          "name": "",
          "type": "uint256"
        }
      ],
      "name": "players",
      "outputs": [
        {
          "name": "player",
          "type": "address"
        },
        {
          "name": "guessNum",
          "type": "uint256"
        },
        {
          "name": "bet",
          "type": "uint256"
        }
      ],
      "payable": false,
      "stateMutability": "view",
      "type": "function"
    },
    {
      "inputs": [],
      "payable": false,
      "stateMutability": "nonpayable",
      "type": "constructor"
    },
    {
      "constant": false,
      "inputs": [
        {
          "name": "adr",
          "type": "address"
        },
        {
          "name": "guessnum",
          "type": "uint256"
        },
        {
          "name": "bet",
          "type": "uint256"
        }
      ],
      "name": "joinGame",
      "outputs": [],
      "payable": true,
      "stateMutability": "payable",
      "type": "function"
    },
    {
      "constant": true,
      "inputs": [],
      "name": "getPlayerAddress",
      "outputs": [
        {
          "name": "",
          "type": "address[]"
        }
      ],
      "payable": false,
      "stateMutability": "view",
      "type": "function"
    },
    {
      "constant": true,
      "inputs": [
        {
          "name": "adr",
          "type": "address"
        }
      ],
      "name": "checkDuplicate",
      "outputs": [
        {
          "name": "",
          "type": "bool"
        }
      ],
      "payable": false,
      "stateMutability": "view",
      "type": "function"
    }
  ],
  "bytecode": "0x608060405234801561001057600080fd5b50600a6000819055506105ff806100286000396000f3fe60806040526004361061006d576000357c0100000000000000000000000000000000000000000000000000000000900463ffffffff16806349e65d32146100725780635340dee41461009d57806374eba0fe146101095780637ace30cc14610172578063f71d96cb146101ca575b600080fd5b34801561007e57600080fd5b50610087610253565b6040518082815260200191505060405180910390f35b3480156100a957600080fd5b506100b2610259565b6040518080602001828103825283818151815260200191508051906020019060200280838360005b838110156100f55780820151818401526020810190506100da565b505050509050019250505060405180910390f35b34801561011557600080fd5b506101586004803603602081101561012c57600080fd5b81019080803573ffffffffffffffffffffffffffffffffffffffff1690602001909291905050506102e7565b604051808215151515815260200191505060405180910390f35b6101c86004803603606081101561018857600080fd5b81019080803573ffffffffffffffffffffffffffffffffffffffff169060200190929190803590602001909291908035906020019092919050505061038a565b005b3480156101d657600080fd5b50610203600480360360208110156101ed57600080fd5b8101908080359060200190929190505050610542565b604051808473ffffffffffffffffffffffffffffffffffffffff1673ffffffffffffffffffffffffffffffffffffffff168152602001838152602001828152602001935050505060405180910390f35b60005481565b606060028054806020026020016040519081016040528092919081815260200182805480156102dd57602002820191906000526020600020905b8160009054906101000a900473ffffffffffffffffffffffffffffffffffffffff1673ffffffffffffffffffffffffffffffffffffffff1681526020019060010190808311610293575b5050505050905090565b600080600090506001805490508110156103835760018181548110151561030a57fe5b906000526020600020906003020160000160009054906101000a900473ffffffffffffffffffffffffffffffffffffffff1673ffffffffffffffffffffffffffffffffffffffff168373ffffffffffffffffffffffffffffffffffffffff161415610379576001915050610385565b6000915050610385565b505b919050565b610393836102e7565b1580156103a557506003600180549050105b1561053d576103b261059b565b606060405190810160405280600073ffffffffffffffffffffffffffffffffffffffff168152602001600081526020016000815250905083816000019073ffffffffffffffffffffffffffffffffffffffff16908173ffffffffffffffffffffffffffffffffffffffff1681525050828160200181815250508181604001818152505060028490806001815401808255809150509060018203906000526020600020016000909192909190916101000a81548173ffffffffffffffffffffffffffffffffffffffff021916908373ffffffffffffffffffffffffffffffffffffffff160217905550506003600180549050101561053a576001819080600181540180825580915050906001820390600052602060002090600302016000909192909190915060008201518160000160006101000a81548173ffffffffffffffffffffffffffffffffffffffff021916908373ffffffffffffffffffffffffffffffffffffffff160217905550602082015181600101556040820151816002015550505061053b565b5b505b505050565b60018181548110151561055157fe5b90600052602060002090600302016000915090508060000160009054906101000a900473ffffffffffffffffffffffffffffffffffffffff16908060010154908060020154905083565b606060405190810160405280600073ffffffffffffffffffffffffffffffffffffffff1681526020016000815260200160008152509056fea165627a7a723058209d8d04aaf079407dba938112c34e3617db7a3947744313e14210f568bc31a8a80029",
  "source": "pragma solidity ^0.5.0;\n\ncontract WithoutSol {\n\n    struct Player{\n        address player;\n        uint guessNum;\n        uint bet;\n\n    }\n    uint public max_players;\n    Player[] public players;\n    address[] playerAddress;\n\n    constructor() public{\n      max_players = 10;\n    }\n    function joinGame(address adr,uint guessnum, uint bet) public payable{\n        if(!checkDuplicate(adr) && players.length<3){\n        Player memory p1 = Player(address(0),0,0);\n        p1.player = adr;\n        p1.guessNum = guessnum;\n        p1.bet = bet;\n        playerAddress.push(adr);\n        if(players.length < 3){\n            players.push(p1);\n        }else{\n           // delete players;\n        }\n        }\n\n    }\n    function getPlayerAddress() public view returns (address[] memory){\n\n            return playerAddress;\n\n    }\n    function checkDuplicate(address adr) public view returns(bool){\n        for(uint i=0; i<players.length; i++){\n            if(adr == players[i].player){\n                return true;\n            }else{\n                return false;\n            }\n        }\n    }\n\n\n}\n",
  "sourcePath": "/Users/MAVJAY/Documents/bc/contracts/withoutcalcution.sol",
  "compiler": {
    "name": "solc",
    "version": "0.5.0+commit.1d4f565a.Emscripten.clang"
  },
  "schemaVersion": "3.0.2",
  "updatedAt": "2019-03-16T13:08:18.179Z",
  "devdoc": {
    "methods": {}
  },
  "userdoc": {
    "methods": {}
  }
}